:020000040800F2
:10000000E006002099090008F1010008F30100084A
:10001000F7010008FB010008FF01000800000000D4
:1000200000000000000000000000000003020008C3
:10003000050200080000000007020008090200088D
:10004000B5050008B3090008B3090008B3090008A2
:10005000B3090008B3090008B3090008B309000890
:10006000B3090008B3090008B3090008B309000880
:10007000B3090008B3090008B3090008B309000870
:10008000B3090008B3090008B3090008B309000860
:10009000B3090008B3090008B3090008D106000835
:1000A000B3090008B3090008B3090008B309000840
:1000B00035060008B3090008B3090008B3090008B1
:1000C000B3090008B3090008B3090008B309000820
:1000D000B30900080D090008B3090008B3090008B6
:1000E000B3090008B3090008B309000800F002F8DA
:1000F00000F047F80AA090E8000C82448344AAF17B
:100100000107DA4501D100F03CF8AFF2090EBAE878
:100110000F0013F0010F18BFFB1A43F0010318473B
:10012000983A0000B83A0000103A24BF78C878C165
:10013000FAD8520724BF30C830C144BF04680C60ED
:10014000704700000023002400250026103A28BF35
:1001500078C1FBD8520728BF30C148BF0B60704739
:10016000662903F0DD84002070471FB502F08CFC87
:1001700004000020002103F0DFF9E0601FBD10B58E
:1001800010BD02F09DFD1146FFF7EFFF00F008F8EB
:1001900002F0BBFD03B4FFF7F2FF03BC00F05CFB11
:1001A000482000F0FFFA00F051FB4FF4165000F029
:1001B00061FB00F019F900F049F941F61F4141F2E5
:1001C000883000F009FA00F041FA0DE000F0CAFAB8
:1001D0000648006808B9012000E0002003490860D3
:1001E0004FF47A7000F0F7FAF0E70000A001214226
:1001F000704700BFFEE700BFFEE700BFFEE700BF9D
:10020000FEE7704770477047704700000CB500204C
:10021000019000906B48006840F4803069490860A4
:1002200000BF6848006800F4003000900198401C4E
:100230000190009818B90198B0F5A06FF1D161480C
:10024000006810F4003F02D00120009001E000207F
:1002500000900098012842D15B48006840F01000EF
:10026000594908600846006820F003000860084605
:10027000006840F0020008605248406851494860F8
:100280000846406848600846406840F4806048601E
:100290000846406820F47C1048600846406840F4F6
:1002A000E81048600846006840F08070086000BFB1
:1002B0004448006810F0007FFAD04248406820F0BF
:1002C0000300404948600846406840F0020048602A
:1002D00000BF3C48406800F00C000828F9D10CBD74
:1002E00010B5FFF793FF10BD10B53648006840F019
:1002F00001003449086008464068344908403149E3
:10030000486008460068324908402E49086008469F
:10031000006820F4802008600846406820F4FE0051
:1003200048604FF41F008860FFF7DAFF4FF000606D
:100330002849086010BD10B5002100200022214B83
:100340005B6803F00C0121B1042906D0082928D1EB
:1003500007E0214B214C236027E01F4B1F4C2360FB
:1003600023E0184B5B6803F47010164B5B6803F4D2
:100370008032022303EB904022B9194B4343174CC0
:1003800023600DE00F4B5B6813F4003F04D0144B67
:100390004343124C236003E00F4B43430F4C236055
:1003A00003E00D4B0D4C236000BF00BF054B5B68A5
:1003B000C3F303130B4CE15C084B1B68CB40074CA9
:1003C000236010BD00100240002002400000FFF832
:1003D000FFFFF6FE08ED00E000127A0000000020AA
:1003E00000093D000400002008B50121042000F0B0
:1003F00025FF4FF48070ADF8000010208DF8030049
:1004000003208DF8020069460E4800F041FC4FF4CD
:1004100080710C4800F0E7FC0121202000F00EFF65
:100420000420ADF8000010208DF8030003208DF8A3
:1004300002006946044800F02BFC0421024800F049
:10044000D2FC08BD000801400014014008B501219C
:10045000042000F0F3FE4FF42040ADF800004820E7
:100460008DF8030069462B4800F012FC0120ADF81E
:10047000000028208DF803006946264800F008FC9B
:1004800008BD10B50121244800F0D1FC23480078B4
:1004900058B32348006830B12248006818B1224898
:1004A0000068012821D10A2000F095F900201B499D
:1004B00008701B48006828B901211C4800F0B7FCEF
:1004C000012010BD1748006828B90121174800F025
:1004D000AEFC0220F5E714480068012813D1012181
:1004E000124800F0A4FC0320EBE70D480068012847
:1004F00009D10C480068012805D10B48006810B9E3
:100500000120064908700121084800F090FC0020F5
:10051000D7E700000008014000043000140000206C
:10052000340121423C0121420001214200023000FD
:1005300070B505460C4645F2555000F0F5FC2846CE
:1005400000F0F5FC204600F0F5FC00F0F6FC00F0B1
:10055000F9FC70BD10B500F0F0FC10BD08B500202E
:100560008DF8000002208DF8010003208DF80200B4
:10057000684600F036FA08BD70B506460C461546CA
:100580000121C80200F067FE284601F0DCFF20468A
:1005900001F0E2FF304601F0FAFF02F003F8FFF746
:1005A000DDFF01F0EAFF70BD10B50446204601F002
:1005B000EEFF10BD10B57F2001F0E3FF01F0F2FF68
:1005C0000448006808B9012000E0002001490860E3
:1005D00010BD0000888122427FB504460D460121EE
:1005E000084600F038FE41F28830ADF8080041F6C8
:1005F0001F40ADF804000020ADF80A00ADF8060079
:1006000001A94FF0804000F055FF012241218807E9
:1006100001F0C7FA1C208DF8000000208DF80100C1
:1006200003208DF8020001208DF80300684600F0D9
:10063000D8F97FBD10B50121880701F060FD18B120
:100640000121880701F06CFD10BD00001FB50121DC
:100650004C4800F0ECFB0121112000F0EFFD4FF4BD
:100660008070ADF80C0010208DF80F0003208DF87D
:100670000E0003A9444800F00BFB8020ADF80C00ED
:1006800028208DF80F0003A93F4800F001FB072147
:10069000022000F011FC8020019000208DF808005D
:1006A00008208DF8090001208DF80A0001A800F04B
:1006B0000FFA17208DF8000002208DF801008DF848
:1006C000020001208DF80300684600F08AF91FBD82
:1006D0002DE9F0410A2000F099F8802000F05EFA40
:1006E00000283DD000214FF0804001F0D3FC0121D3
:1006F000880701F03BFA00BF8021234800F059FB36
:100700000028F9D100214FF0804001F02FFA4FF07E
:10071000804001F0E2FC00EB800000EB00104400A0
:10072000204603F0A9F805460022184B02F04CFFC2
:10073000074602F017FF16490860002114480068B8
:1007400003F0BDF909D21248006803F001F904462C
:1007500022460B460FA001F031FF802000F02FFA57
:10076000BDE8F08110B54FF48071074800F03BFB05
:10077000142000F04BF84FF48071034800F035FB73
:1007800010BD000000023000001001400000694070
:100790001800002064697374616E63653A256620F1
:1007A000636D000010B504466FF0040000F064F9BA
:1007B000E11704EB5171C910224A117010460078FC
:1007C00000EB4001C1EBC0104FF6FF7101EAC00021
:1007D0001D49088010BD01461B4A12884A434FF04C
:1007E000E0235A6100229A6101221A6100BF4FF092
:1007F000E022106910F0010F02D010F4803FF6D013
:1008000000224FF0E0231A619A61704701460D4AB9
:1008100012784A434FF0E0235A6100229A61012284
:100820001A6100BF4FF0E022106910F0010F02D0F2
:1008300010F4803FF6D000224FF0E0231A619A6155
:10084000704700001C0000201E00002010B54FF46F
:10085000A06000F0C1F810BD014600BF704700BFA6
:10086000494A128812F0400FFAD0C2B2464B1B1D03
:100870001A80704710B586B00446012144F2050085
:1008800000F0DCFC4FF40070ADF8140003208DF88C
:10089000160018208DF8170005A93C4800F0F8F95B
:1008A0004FF48060ADF8140004208DF8170005A9FE
:1008B000364800F0EDF925208DF8000003208DF872
:1008C00001008DF8020001208DF80300684600F059
:1008D00088F801940020ADF80800ADF80A00ADF8E2
:1008E0000C00ADF810000C20ADF80E0001A9264850
:1008F00001F05DFC012240F22551234801F0EFFC9C
:100900000121214801F0DFFC06B010BD10B540F216
:1009100025511D4801F0C8FD10B31B4801F044FDEE
:10092000C4B21B48007810F0800F2BD11848007813
:1009300010F0400F0CD00A2C03D00020144908708E
:1009400020E01348007840F080001149087019E059
:100950000D2C06D10E48007840F040000C4908707C
:1009600010E00B48007800F03F000A490C5408489A
:100970000078401C06490870084600783F2801DDD1
:100980000020087010BD0000003801400008014040
:10099000200000203C00002009488047094800470B
:1009A000FEE7FEE7FEE7FEE7FEE7FEE7FEE7FEE71F
:1009B000FEE7FEE704480549054A064B704700007C
:1009C000E9020008ED000008E0000020E006002039
:1009D000E0020020E002002031490143314A116069
:1009E000704770B5002100230F22C4780CB32D4C42
:1009F000246804F4E064C4F5E064210AC1F104034E
:100A0000CA40447804FA03F1847814402143090170
:100A1000254C0678A155047804F01F050124AC404C
:100A200005786D114FF0E02606EB8505C5F800410D
:100A300009E0047804F01F050124AC401B4D067842
:100A4000761145F8264070BD194A0A400243154BFD
:100A50001B1F1A60704739B1124A121D12680243F7
:100A6000104B1B1D1A6006E00E4A121D12688243CD
:100A70000C4B1B1D1A607047042808D14FF0E02171
:100A8000096941F004014FF0E022116107E04FF0E5
:100A9000E021096921F004014FF0E0221161704763
:100AA0000000FA050CED00E000E400E080E100E069
:100AB00080FFFF1F002044490860091D0860091DD0
:100AC0000860091D086041483F49143108607047BB
:100AD00000213D498279002A3AD00A46126803680B
:100AE0009A430B461A600A1D126803689A430B1D4D
:100AF0001A60027911440A6803681A430A60324A8C
:100B00000832126803689A432F4B08331A601A1D83
:100B1000126803689A432C4B0C331A604279102AEE
:100B20000ED11A1F126803681A43274B08331A6044
:100B30001A1D126803681A43234B0C331A600DE028
:100B40002149427911440A6803681A430A6005E0A2
:100B5000027911440A6803689A430A6070470021C9
:100B6000016001710C2141710021817170471649AA
:100B7000103109680143144A103211607047014670
:100B80000020114A143212680A4201D0012000E00C
:100B9000002070470C49143108607047014600205E
:100BA0000022094B1B6803EA0102074B14331B6840
:100BB0000B4202D00AB1012000E000207047024938
:100BC000143108607047000000040140FFFF0F006F
:100BD00010B50446CA48844208D10121042000F01F
:100BE00047FB0021042000F043FB46E0C548844257
:100BF00008D10121082000F03BFB0021082000F073
:100C000037FB3AE0C048844208D10121102000F0AF
:100C10002FFB0021102000F02BFB2EE0BB4884426C
:100C200008D10121202000F023FB0021202000F02A
:100C30001FFB22E0B648844208D10121402000F089
:100C400017FB0021402000F013FB16E0B14884425E
:100C500008D10121802000F00BFB0021802000F052
:100C600007FB0AE0AC48844207D10121801500F05F
:100C7000FFFA0021A01500F0FBFA10BD10B501210C
:100C8000084600F0F5FA0021012000F0F1FA10BD4D
:100C90002DE9F04102460025002600200023002413
:100CA000002791F803C00CF00F0591F803C01CF069
:100CB000100F03D091F802C04CEA050591F800C06E
:100CC000BCF1000F31D0146800202BE04FF0010C74
:100CD0000CFA00F3B1F800C00CEA03069E4220D1E2
:100CE00083004FF00F0C0CFA03F7BC4305FA03FC2A
:100CF0004CEA040491F803C0BCF1280F06D14FF070
:100D0000010C0CFA00FCC2F814C00AE091F803C010
:100D1000BCF1480F05D14FF0010C0CFA00FCC2F8F1
:100D200010C0401C0828D1D31460B1F800C0BCF139
:100D3000FF0F34DD546800202EE000F1080C4FF066
:100D4000010808FA0CF3B1F800C00CEA03069E4251
:100D500021D183004FF00F0C0CFA03F7BC4305FAC6
:100D600003FC4CEA040491F803C0BCF1280F05D140
:100D700000F1080C08FA0CF8C2F8148091F803C0CE
:100D8000BCF1480F07D100F1080C4FF0010808FA38
:100D90000CF8C2F81080401C0828CED35460BDE87F
:100DA000F0814FF6FF710180022181700421C17032
:100DB00070470246002093680B4201D0012000E0FA
:100DC000002070470146886880B2704702460020C4
:100DD000D3680B4201D0012000E00020704701469B
:100DE000C86880B2704701617047416170470AB1BD
:100DF000016100E041617047C16070474FF480328B
:100E00000A43826181618261826982697047024618
:100E10000020424B18684FF68073184040EA0210D9
:100E200008433E4B186070473D49C8617047F0B5B4
:100E30000A46002300240021002500F00046B6F1F8
:100E4000004F02D1354EF16901E0344E7168C0F3B4
:100E5000034583B200F44016B6F5401F08D121F0D7
:100E600070612E4E766826F070662C4F7E6012E020
:100E700000F48016B6F5801F06D1032606FA05F4A5
:100E8000A14341F0706106E0460D360103FA06F613
:100E9000B14341F0706122B1460D360103FA06F606
:100EA000314300F00046B6F1004F02D11B4EF16114
:100EB00001E01A4E7160F0BD30B500228B071C0FA7
:100EC0000F2303FA04F2154B08338C1053F8243027
:100ED0009343124C08348D1044F8253023468C106F
:100EE00053F824308C07240F00FA04F423430B4CEE
:100EF00008348D1044F8253030BD0A490860704729
:100F000000080140000C01400010014000140140A5
:100F100000180140001C0140002001400000014079
:100F200000002042DC0020420E49086070470D4955
:100F3000486070470B49886070474AF6AA20094903
:100F4000086070474CF6CC4006490860704701467F
:100F50000020044AD2680A4201D0012000E00020AB
:100F60007047000000300040DD48006840F001009C
:100F7000DB49086008464068DA490840D8494860BB
:100F800008460068D8490840D54908600846006806
:100F900020F4802008600846406820F4FE00486085
:100FA0004FF41F0088607047CD49096821F48031F3
:100FB000CB4A11601146096821F480211160B0F517
:100FC000803F03D0B0F5802F0ED106E0C4490968F8
:100FD00041F48031C24A116007E0C149096841F417
:100FE000A021BF4A116000E000BF00BF704710B5EC
:100FF00001460022002300204A11012A02D1B84CE8
:10100000236806E0022A02D1B54C236A01E0B44C01
:10101000636A01F01F02012494401C4201D00120A8
:1010200000E0002010BD38B500200090002400250D
:1010300000BF3120FFF7DBFF05460098401C009001
:101040000098B0F5A06F01D0002DF2D03120FFF74D
:10105000CEFF08B1012400E00024204638BD01463F
:1010600000209F4A106820F0F80040EAC10010609C
:1010700070479E490860704702460020984B5868A8
:1010800020F47C1042EA01031843954B58607047E6
:1010900096490866704701460020914A506820F042
:1010A00003000843506070478D48406800F00C0012
:1010B0007047014600208A4A506820F0F00008433B
:1010C0005060704701460020854A506820F4E06077
:1010D00008435060704701460020814A506820F460
:1010E000605040EAC1005060704729B17C4A527A92
:1010F00002437B4B5A7204E0794A527A8243784B1E
:101100005A7270477A490860704701460020744A55
:10111000506820F440400843506070470021754AF1
:1011200011706F4A82F82010012802D0042808D1DB
:1011300003E001216F4A117004E005216D4A11702E
:1011400000E000BF00BF70476B490860704764490A
:10115000096A0143624A116270476749443908606D
:10116000704730B500210022002400235C4D6D68DB
:1011700005F00C0121B1042905D0082923D105E08F
:101180005E4D056022E05D4D05601FE0544D6D68C9
:1011900005F47012524D6D6805F48034022505EB9C
:1011A00092421CB9564D554305600BE04C4D6D689D
:1011B00015F4003F03D0524D5543056002E04F4DFA
:1011C0005543056002E04D4D056000BF00BF444D32
:1011D0006D6805F0F00109094A4D6B5C0568DD405A
:1011E00045603F4D6D6805F4E061090A454D6B5C53
:1011F0004568DD4085603A4D6D6805F46051C90A67
:10120000404D6B5C4568DD40C560354D6D6805F44B
:101210004041890B3C4D6B5CC568B5FBF3F505613E
:1012200030BD29B12E4A526902432D4B5A6104E068
:101230002B4A526982432A4B5A61704729B1284A86
:1012400092690243264B9A6104E0254A92698243DF
:10125000234B9A61704729B1214AD2690243204B3E
:10126000DA6104E01E4AD26982431D4BDA6170479D
:1012700029B11B4AD2680243194BDA6004E0184ACC
:10128000D2688243164BDA60704729B1144A12695A
:101290000243134B1A6104E0114A12698243104B56
:1012A0001A61704714494039086070470F49C86493
:1012B00070470B49C87170470948406A40F0807018
:1012C00007494862704701460020054A92680A4271
:1012D00001D0012000E0002070470149887270476A
:1012E000001002400000FFF8FFFFF6FE000042423F
:1012F000D8004242201002408004424200127A008C
:1013000000093D00280000203800002010B50446E8
:10131000FE48844208D10121C014FFF7A9FF002133
:10132000E014FFF7A5FFC4E0B4F1804F08D101211C
:101330000846FFF7AAFF00210120FFF7A6FFB8E04B
:10134000F348844208D101210220FFF79EFF0021CB
:101350000220FFF79AFFACE0EE48844208D1012159
:101360000420FFF792FF00210420FFF78EFFA0E08A
:10137000E948844208D101210820FFF786FF0021B7
:101380000820FFF782FF94E0E448844208D101215D
:101390001020FFF77AFF00211020FFF776FF88E08A
:1013A000DF48844208D101212020FFF76EFF002191
:1013B0002020FFF76AFF7CE0DA48844208D101214F
:1013C0004014FFF755FF00216014FFF751FF70E054
:1013D000D548844209D10121C804FFF749FF002103
:1013E0004FF40020FFF744FF63E0D048844209D166
:1013F00001210805FFF73CFF00214FF48010FFF7A3
:1014000037FF56E0CA48844209D101214805FFF759
:101410002FFF00214FF40010FFF72AFF49E0C548D5
:10142000844208D101214020FFF72FFF00214020F6
:10143000FFF72BFF3DE0C048844208D10121802006
:10144000FFF723FF00218020FFF71FFF31E0BB489B
:10145000844208D101218015FFF717FF0021A01554
:10146000FFF713FF25E0B648844209D101210804A3
:10147000FFF7FEFE00214FF48030FFF7F9FE18E081
:10148000B048844209D101214804FFF7F1FE002150
:101490004FF40030FFF7ECFE0BE0AB48844208D17C
:1014A00001218804FFF7E4FE00214FF48020FFF7BC
:1014B000DFFE10BD00220288944B98420ED0994B5B
:1014C00098420BD0B0F1804F08D0914B984205D094
:1014D000904B984202D0904B984204D14FF68F73B4
:1014E0001A404B881A438D4B984207D08C4B984238
:1014F00004D04FF6FF431A40CB881A4302808B88F2
:1015000083850B880385814B98420BD0854B98428D
:1015100008D08B4B984205D08A4B984202D08A4B18
:10152000984201D10B7A038601238382704770B5FC
:10153000002400220023058C4FF6FE7635400584FA
:10154000028C8388048B4FF68F752C40B51E2C407F
:101550000D882C43751E2A400D892A434D882A4345
:101560006A4DA8420BD06F4DA84208D0744DA842D6
:1015700005D0744DA84202D0734DA84213D14FF646
:10158000F7752A404D892A434FF6FB752A408D880E
:101590002A434FF6FF652B404FF6FF552B408D89B0
:1015A0002B43CD892B4383800483CD888586028499
:1015B00070BD70B5002400220023058C4FF6EF7635
:1015C00035400584028C8388048B48F6FF752C40D7
:1015D0004FF6FF452C400D884FF6FF7606EA0525AD
:1015E0002C434FF6DF752A400D8906EA05152A437C
:1015F0004D8806EA05152A43444DA84202D0494DBC
:10160000A8421DD14FF67F752A404D894FF6FF76CF
:1016100006EA05152A434FF6BF752A408D8806EA6B
:1016200005152A434FF6FF352B404FF2FF752B402F
:101630008D8906EA85052B43CD8906EA85052B436E
:1016400083800483CD880587028470BD70B5002433
:1016500000220023058C4FF6FF6635400584028C7E
:101660008388848B4FF68F752C404FF6FC752C4089
:101670000D882C434FF6FF552A400D894FF6FF7613
:1016800006EA05252A434D8806EA05252A431F4D0B
:10169000A84202D0234DA8421DD14FF2FF752A4027
:1016A0004D894FF6FF7606EA05252A434FF6FF35AA
:1016B0002A408D8806EA05252A434EF6FF752B4001
:1016C0004DF6FF752B408D8906EA05152B43CD8914
:1016D00006EA05152B4383808483CD8885870284A1
:1016E00070BD70B5002200230024058C4EF6FF76F5
:1016F00035400584038C8488828B48F6FF752A4028
:101700004FF6FF452A400D8820E00000002C0140E4
:101710000004004000080040000C004000100040A1
:101720000014004000340140004C014000500140D2
:101730000054014000180040001C00400020004000
:101740000040014000440140004801404FF6FF7650
:1017500006EA05252A434DF6FF752B400D8906EA5A
:1017600005352B434D8806EA05352B43FA4DA84233
:1017700002D0FA4DA84208D14BF6FF752C408D8956
:101780004FF6FF7606EA85152C4384808283CD8848
:10179000A0F84050038470BD828B4FF2FF331A4093
:1017A0008283828B4FF6FF7303EA01231A438283FD
:1017B0007047F0B50C461546002200210026078C24
:1017C0004EF6FF7C07EA0C070784828B018C4FF6EC
:1017D000FF7707EA043640F6FF473A404FF6FF77B7
:1017E00007EA05273A434FF6FF7707EA03373A43FC
:1017F000D94FB8420ED0D94FB8420BD0B0F1804F7C
:1018000008D0D74FB84205D0D64FB84202D0D64FF5
:10181000B84206D14DF6FF77394046F48057394338
:1018200005E047F6FF57394044F480573943828337
:101830000184F0BD828B4FF6F3731A408283828B52
:101840000A4382837047F0B50C46154600220021FA
:101850000026078C4FF6FF6C07EA0C070784828B83
:10186000018C4FF6FF7707EA04264FF60C773A40D3
:101870004FF6FF7707EA03172F433A43B64FB842B4
:101880000ED0B64FB8420BD0B0F1804F08D0B44F55
:10189000B84205D0B34FB84202D0B34FB84206D1D8
:1018A0004FF6FF57394046F48077394305E04FF251
:1018B000FF57394044F48077394382830184F0BD77
:1018C000028B4FF2FF331A400283028B4FF6FF73F5
:1018D00003EA01231A4302837047F0B50C4615460C
:1018E000002200210026078C4FF6EF7C07EA0C0748
:1018F0000784028B018C4FF6FF7707EA041640F647
:10190000FF473A404FF6FF7707EA03373A434FF66F
:10191000FF7707EA05273A438F4FB8420ED08F4F23
:10192000B8420BD0B0F1804F08D08D4FB84205D0EF
:101930008C4FB84202D08C4FB84206D14FF6DF77B9
:10194000394046F01007394305E04FF65F773940DC
:1019500044F01007394302830184F0BD028B4FF637
:10196000F3731A400283028B0A4302837047F0B577
:101970000C46154600220021068C4FF6FE773E40AD
:101980000684028B018C4FF60C7632407E1C06EAF0
:1019900003162E433243704EB0420ED06F4EB0420B
:1019A0000BD0B0F1804F08D06D4EB04205D06D4ED7
:1019B000B04202D06C4EB04206D14FF6FD763140B7
:1019C00044F00106314305E04FF6F576314044F02E
:1019D0000106314302830184F0BD70B505460C4613
:1019E0005D4885420ED05D4885420BD0B5F1804FF1
:1019F00008D05B48854205D05A48854202D05A48F3
:101A0000854200D100E000BF208850B92389A28818
:101A100061882846FFF7ABFFE1882846FFF79EFF65
:101A200025E0208804280AD12389A28861882846D5
:101A3000FFF753FFE1882846FFF742FF17E02088B1
:101A400008280AD12389A28861882846FFF7FBFE6F
:101A5000E1882846FFF7EEFE09E02389A288618825
:101A60002846FFF7A6FEE1882846FFF795FE70BDE1
:101A70002DE9F04105460C4600260127608808B98B
:101A8000022600E00026A088012801D1022700E0FC
:101A900001272088A0B92389A28861882846FFF7FA
:101AA00066FFE1882846FFF759FF23893A46314609
:101AB0002846FFF712FFE1882846FFF701FF13E0F1
:101AC0002389A28861882846FFF707FFE188284616
:101AD000FFF7F6FE23893A4631462846FFF747FFCF
:101AE000E1882846FFF73AFFBDE8F0810A884B8875
:101AF0001A438B881A43CB881A430B891A434B89A4
:101B00001A438B891A43A0F8442070474FF6FF719F
:101B1000818000210180C1804180017270470021D5
:101B2000018041808180C180018141818181C181A9
:101B30007047002101804180012181800021C18006
:101B4000018170470021018041808180C180018135
:101B50004181818170470000002C01400034014028
:101B60000004004000080040000C004021B1028841
:101B700042F00102028004E002884FF6FE731A4030
:101B80000280704731B1B0F8442042F40042A0F81E
:101B9000442005E0B0F84420C2F30E02A0F844202F
:101BA00070471AB183890B43838102E083898B4399
:101BB000838170478182704741EA0203A0F8483070
:101BC00070471AB183890B43838102E083898B4379
:101BD0008381704701894FF6F87211400181704787
:101BE0000A46002101894FF68F7319401143018184
:101BF000704730B504460D4629462046FFF7F0FFF2
:101C0000208940F00700208130BD2DE9F0410446D5
:101C10000D4616461F46602D06D13B460122314631
:101C20002046FFF75AFE05E03B460122314620469A
:101C3000FFF79DFE29462046FFF7D2FF208940F09E
:101C400007002081BDE8F08130B50C4600210189F4
:101C5000C9B24FF6FF7505EA03251543254329430D
:101C6000018130BD2DE9F04105460E4617469846E4
:101C7000002443463A4631462846FFF7E5FF2C89C3
:101C80004FF6F870044044F007044FF68F7004409C
:101C900044F070042C81BDE8F081F0B504460D4697
:101CA00016461F463B46324629462046FFF7CCFFE4
:101CB000208940F480402081F0BD018582827047F8
:101CC0000A46002101884FF68F73194011430180A5
:101CD0007047F0B50C4615461E4600210022002331
:101CE0000189028B038C4FF6F877394021434FF678
:101CF000FC473A4040F201173A434FF6DD773B404C
:101D00004FF6FF7707EA06172F433B430181028313
:101D10000384F0BD0A460021018B4FF68F731940F2
:101D20001143018370470A460021018B48F6FF7377
:101D300019404FF6FF7303EA0223194301837047EA
:101D40000A460021818B4FF68F731940114381831E
:101D500070470A460021818B48F6FF7319404FF601
:101D6000FF7303EA022319438183704721B102887C
:101D700042F08002028004E002884FF67F731A402E
:101D80000280704721B1828842F00402828004E020
:101D900082884FF6FB731A408280704721B1828897
:101DA00042F00802828004E082884FF6F7731A40FE
:101DB0008280704721B1828842F00102828004E073
:101DC00082884FF6FE731A40828070470A460021CF
:101DD000018B4FF6F77319401143018370470A4690
:101DE0000021018B4FF2FF7319404FF6FF7303EA96
:101DF00002231943018370470A460021818B4FF665
:101E0000F77319401143818370470A460021818B83
:101E10004FF2FF7319404FF6FF7303EA0223194391
:101E2000818370470A460021018B4FF6FB731940EE
:101E30001143018370470A460021018B4FF6FF339F
:101E400019404FF6FF7303EA0223194301837047D9
:101E50000A460021818B4FF6FB73194011438183A1
:101E600070470A460021818B4FF6FF3319404FF629
:101E7000FF7303EA02231943818370470A46002156
:101E8000018B4FF67F7319401143018370470A4657
:101E90000021018BC1F30E014FF6FF7303EA022309
:101EA0001943018370470A460021818B4FF67F73E7
:101EB00019401143818370470A460021818BC1F389
:101EC0000E014FF6FF7303EA022319438183704723
:101ED0000A460021018C4FF6FD731940114301841D
:101EE00070470A460021018C4FF6F77319401143E1
:101EF000018470470A460021018C4FF6DF731940B8
:101F00004FF6FF7303EA02131943018470470A4630
:101F10000021018C4FF67F7319404FF6FF7303EADF
:101F200002131943018470470A460021018C4FF6C1
:101F3000FF5319404FF6FF7303EA0223194301844C
:101F400070470A460021018C4FF2FF7319404FF68B
:101F5000FF7303EA02231943018470470A460021F4
:101F6000018C4DF6FF7319404FF6FF7303EA0233FD
:101F700019430184704730B5002301248C40A3B27B
:101F8000048C9C430484048C02FA01F5ADB22C430A
:101F9000048430BD30B5002304248C40A3B2048CEB
:101FA0009C430484048C02FA01F5ADB22C430484F2
:101FB00030BD70B5034600200024184618300125B6
:101FC0008D40ACB21D8CA5431D8409B1082909D1EF
:101FD00000EB6100056825F0700505600568154394
:101FE00005600EE00D1FC5F34E052844056825F475
:101FF000E045056005684FF6FF7606EA02263543A0
:10200000056070BD21B1028842F00202028004E046
:1020100002884FF6FD731A400280704721B1028892
:1020200042F00402028004E002884FF6FB731A407B
:102030000280704721B1828842F08002828004E0F1
:1020400082884FF67F731A408280704702884FF66D
:10205000F7731A40028002880A4302807047828820
:102060004FF68F731A40828082880A4382807047BD
:1020700002894FF6F8731A40028102890A430281ED
:10208000704702894FF67F731A40028102890A4322
:1020900002817047818470478185704781867047CF
:1020A0000187704781877047A0F840107047028809
:1020B0004FF6FF431A40028002880A4302807047AD
:1020C0000146888E70470146088F70470146888F09
:1020D00070470146B1F8400070470146888C704750
:1020E0000146088D704702460020138A0B4201D03A
:1020F000012000E000207047CA430282704730B5DB
:102100000246002000230024158A05EA0103958970
:1021100005EA010413B10CB1012000E0002030BD3C
:10212000CA4302827047000010B50446FB4884424F
:1021300009D101218803FFF79BF800214FF480406B
:10214000FFF796F832E0F648844209D101214804AD
:10215000FFF79BF800214FF40030FFF796F825E0D9
:10216000F048844209D101218804FFF78EF800214C
:102170004FF48020FFF789F818E0EB48844209D13A
:102180000121C804FFF781F800214FF40020FFF778
:102190007CF80BE0E548844208D101210805FFF7EF
:1021A00074F800214FF48010FFF76FF810BD2DE98F
:1021B000F04786B005460E460024A24600BFA14661
:1021C0000027B08900B100BF2F462C8A4CF6FF7063
:1021D0000440F08804432C82AC894EF6F31004408E
:1021E000B08831890843718908430443AC81AC8AC3
:1021F0004FF6FF400440B0890443AC8201A8FEF7CB
:10220000B0FFC648874202D1DDF810A001E0DDF83A
:102210000CA0A88910F4004F08D00AEBCA0000EB0C
:102220000A1031684900B0FBF1F807E00AEBCA0078
:1022300000EB0A1031688900B0FBF1F86420B8FBAC
:10224000F0F004012009642101FB1089A88910F431
:10225000004F08D0322000EBC900B0FBF1F000F0D5
:102260000700044308E0322000EB09106421B0FBB2
:10227000F1F000F00F0004432C8106B0BDE8F087B8
:102280004FF41651016000218180C18001810C2131
:10229000418100218181704710B502460020108ADB
:1022A0004FF2FF0318400B884C8823438C8823434C
:1022B000CC8823431843108210BD00210180418047
:1022C0008180C180704721B1828942F400528281AD
:1022D00004E082894DF6FF731A4082817047F0B5A1
:1022E00003460024002600250020A1F510676A3F60
:1022F00000D100BF1846C1F3421401F01F060127A8
:1023000007FA06F5012C01D10C3004E0022C01D1B2
:10231000103000E014301AB107682F43076002E064
:102320000768AF430760F0BD1AB1838A0B4383820D
:1023300002E0838A8B4383827047028A4FF6F073F0
:102340001A400282028A0A430282704782894FF24F
:10235000FF731A40828182890A438281704721B1CA
:10236000828942F00202828104E082894FF6FD7385
:102370001A4082817047028A4FF6DF731A40028248
:10238000028A0A430282704721B1028A42F48042E3
:10239000028204E0028A4BF6FF731A400282704701
:1023A000C1F308028280704701468888C0F30800A4
:1023B0007047818941F0010181817047028BD2B25F
:1023C0000283028B42EA012202837047028B02F4ED
:1023D0007F420283028B0A430283704721B1828AC3
:1023E00042F02002828204E0828A4FF6DF731A40B4
:1023F0008282704721B1828A42F01002828204E018
:10240000828A4FF6EF731A408282704721B1828A26
:1024100042F00802828204E0828A4FF6F7731A4083
:102420008282704721B1828942F40042828103E0B6
:102430008289C2F30E028281704721B1828A42F4FE
:102440000062828204E0828A4FF2FF731A40828225
:102450007047828A4FF6FB731A408282828A0A434F
:102460008282704721B1828A42F00202828204E0B5
:10247000828A4FF6FD731A4082827047024600201E
:10248000B1F5007F00D100BF13880B4201D00120BD
:1024900000E00020704701F40072B2F5007F00D127
:1024A00000BFCA430280704770B502460024002373
:1024B00000250020A1F510666A3E00D100BFC1F3DF
:1024C000421501F01F03012606FA03F3012D02D184
:1024D0009689334006E0022D02D1168A334001E08E
:1024E000968A33400C12012606FA04F4168834400A
:1024F00013B10CB1012000E0002070BD10B5002226
:102500000023A1F510646A3C00D100BF0A12012427
:102510009440A3B2DC43048010BD000000380140A9
:102520000044004000480040004C00400050004083
:1025300010B50121C802FEF7A8FE00214FF400608B
:10254000FEF7A3FE10BD0021194A126822F4C071E3
:102550000143174A1160704708B5002100911449E2
:10256000096821F07F01009100F07F01009A11437A
:1025700000910F4A0099116008BD01200D490860C3
:10258000704700F07F010A4A121F1160704740F047
:102590008001074A121F116070470548001D00683E
:1025A000C0B2704700200249091D08607047000052
:1025B000042C0040A4800542704700000FB4044979
:1025C00010B503AA029800F04DFA10BC5DF814FB98
:1025D000240000202DE9F0410E4604460020206230
:1025E0002046E168884730B3252805D0D4E9012189
:1025F0009047206A401CF2E7E168204600278847A0
:10260000050018D0A5F14100192802D820354FF453
:1026100000673246294620462760FDF7A1FD40B1FC
:10262000012804D0F61D26F007060836D8E7361D27
:10263000D6E72846DAE7206ABDE8F08170477047A0
:102640007047704770472DE9FF4F0C461E464FF00C
:10265000FF378BB0D2E90001DDF860800A908A462E
:10266000C1F30A5505B93D46002108464FF0000068
:10267000BAF1000F00F4400005DA00EB80004FF4DF
:10268000400101EA50004FEA9059B9F1010F00DD15
:10269000B9460A9850EA4A000ED044F61050A5F206
:1026A000FF3545432F14B8F1000F1ED07542291E87
:1026B0001EDDC9F100021CE0B8F1010F4FF000006F
:1026C00001D0302103E0F24305E02154401CB04228
:1026D000FBDB30460022002121540B99C1F8088011
:1026E000C1E900200FB0BDE8F08FBD1B6D1CDEE717
:1026F0004A4600DA694206A800F068FA06AB07CB42
:1027000003AB07C350460A9900F046FB8DE807006B
:10271000A0F500501F3800900398002D09DD42F20B
:102720001F014A46084403A90390684600F0A5FD2E
:1027300008E0A0F500504A461F3803A903906846F8
:1027400000F0AFFD8DE807000004000C03D04FF04F
:10275000FF30410800E01046B8F1000F03D000221E
:10276000009215461FE0751E06D400F091F902F1A3
:10277000300262556D1EF8D5B3460122084302D0DF
:1027800000227F1C04E02078302801D100227F1E27
:10279000002A099787D01DE0112D07DA00F078F99B
:1027A000303262556D1C50EA0102F5D108430FD159
:1027B0000021681E05E0235C625C6354491C2254BE
:1027C000401E8142F7DBAB46A81B401E099001E08A
:1027D000009848B1002004F80B000B98099AC0F843
:1027E0000880C0E9002B7DE711264FF000085AE76A
:1027F0002DE9F04F88460446D21D22F0070191B022
:10280000D1E90001CDE90A0100F081FE02460B98F2
:10281000C00F01D02D2007E02068810701D52B20B3
:1028200002E0202101EAC000032A099001D0072A12
:1028300005DB03464146204600F088F90FE1207889
:10284000800601D5E06900E00620B8F1650F8146F9
:1028500006D0B8F1660F18D0B8F1670F72D132E028
:102860000020B9F1110F009001DB112301E009F103
:1028700001030AAA01A90CA8FFF7E5FEDDE90C7027
:10288000002609F10105834648E001204B460090EF
:102890004FF000470AAA01A90CA8FFF7D4FEDDE912
:1028A0000DB00C995D46002618B909F1010001EB45
:1028B0000005B9EB050003D4C0F1FF3609F10105AD
:1028C000A5EB09002BE0B9F1010F01DA4FF0010986
:1028D0000020B9F1110F0090484601DD112300E0FE
:1028E00003460AAA01A90CA8FFF7ADFEDDE90C70AA
:1028F0004D4600268346207800070AD4AB4500DA0F
:102900005D4601A8012D04DD411911F8011C302993
:1029100007D04F4502DA17F1040F04DA012082468E
:1029200010E06D1EEEE7002F02DCED1B3E4403E0DD
:10293000781CA84200DD0546A7EB060000F1010A5D
:102940004FF000472078000703D4AA4501DB4FF081
:10295000FF3A0021B7F1004F0DF143088DF8431005
:1029600023D002202B23002F01DA7F422D234FF0AA
:102970000A0C011EA0F1010000DC4FB197FBFCF135
:102980000CFB11720F4602F1300208F8012DF0E73E
:10299000A8F1010003702188090501D5452100E057
:1029A0006521A0F1010800F8011C09980FA9A1EB0D
:1029B000080707F1070700B1012000EB050101EB53
:1029C000EA70A1693844A1EB0000A0F10100A06108
:1029D0002078C00602D42046AFF30080099830B1B9
:1029E000D4E901219047206A00F10100206220789B
:1029F000C00620D52046AFF300801CE0002E04DB8B
:102A0000B34502DD01A8805D00E03020D4E901215A
:102A10009047206A761C401CBAF1010A20620AD154
:102A200000F032F8C0680168405CD4E901219047A9
:102A3000206A401C2062281EA5F10105DEDC07E0AB
:102A4000D4E9012118F8010B9047206A401C20624C
:102A5000381EA7F10107F3DC2046AFF30080022007
:102A600011B040E6074B70B50D467B4400F05BF8B3
:102A70000446284600F01CF910B14FF0FF3070BD3D
:102A8000204670BDF1DDFFFF004870479C0000202C
:102A900030B5B0F10A024FEA900E71F100034EEA30
:102AA000817EB0EB0E0061EB91014FEA101E4EEA01
:102AB000017E10EB0E0041EB11114FEA102E4EEA91
:102AC000016E10EB0E0041EB11214FEA104E4EEA61
:102AD000014E10EB0E0041EB1141401841F1000195
:102AE0004FEAD00040EA41704FEAD10110EB800577
:102AF0004FEA810444EA907444EB01046D1944EBFD
:102B00000404521BA3414FF0000348BF0A3200D512
:102B100030BD401C41F1000130BD000001694A1C7C
:102B200002610878704700B58FB0CDE9013100210E
:102B3000059105497944CDE9031011466846FFF730
:102B400049FD0FB000BD0000E5FFFFFF2DE9F0419A
:102B50001F46044603260168072A01F4006004DBCF
:102B600008B116A505E016A503E008B115A500E01B
:102B700015A521F010002060A069C01EA0610FB152
:102B8000401EA0612046AFF300804FB1D4E901217F
:102B900038469047206A401C2062C01C206206E034
:102BA000206AFAE7D4E9012115F8010B9047761E57
:102BB000F8D22046AFF30080BDE8F0814E414E00D0
:102BC0006E616E00494E4600696E66002DE9F04761
:102BD000814616468AB035487844D0E9002380689B
:102BE0000092CDE90130314878440C38D0E9022315
:102BF000006903924FF03702CDE9043041F69B3073
:102C0000014491FBF2F0A0F1800502FB10141B3C83
:102C100002D56442012000E00020DFF890A0804649
:102C20000027FA44AAF1C60A0DE0E00709D03246AF
:102C3000684607EB47010AEB810100F032FB8DE8A3
:102C4000070064107F1C002CEFD1184F7F44B43F65
:102C500017E0E80713D007EB04100DF1180A90E80D
:102C60000E00AAE80E00C068F04201D19819089041
:102C7000324606A903A800F014FB03AB07C36D108E
:102C8000641C002DE5D132466946B8F1000F03A857
:102C900002D000F0F2FA01E000F003FBC9E9000104
:102CA000C9F808200AB0BDE8F0870000C40F000092
:102CB000007B00F080007047004870477C000020D7
:102CC0007546FFF7F9FFAE4605006946534620F00A
:102CD0000700854618B020B5FDF76CFEBDE8204022
:102CE0004FF000064FF000074FF000084FF0000BC8
:102CF00021F00701AC46ACE8C009ACE8C009ACE87B
:102D0000C009ACE8C0098D4670470446AFF30080A7
:102D10002046FDF73FFA00004FF0013C50F8042B2D
:102D200051F8043B9A4221D1A2EB0C03934313EADE
:102D3000CC1317D150F8042B51F8043B9A4215D10B
:102D4000A2EB0C03934313EACC130BD150F8042BE2
:102D500051F8043B9A4209D1A2EB0C03934313EAC6
:102D6000CC13DBD04FF00000704700BFD01A01BA7F
:102D7000B1FA81F101F0180122FA01F0CB40C1F162
:102D80002001DBB2C0B2C01A2CFA01F3D11A914370
:102D900011EAC311E6D170475FEA400C08BF91F019
:102DA000000F4FEA8C234FEAC12243EA51514FEA08
:102DB0001C5018BF00F5F0404FEA300018BF41F03A
:102DC00000415FEA6C5C00F02980BCF1FF3F08BF66
:102DD00040F080407047130C06BF12044FF0100CF7
:102DE0004FF0000C130E04BF12020CF1080C130F6D
:102DF00004BF12010CF1040C930F04BF92000CF1FC
:102E0000020CD30F04BF52000CF1010C11464FF01D
:102E10000002A0F11F00A0EB0C00704711F0004F62
:102E200008BF704731F000413FF4D5AF0B0C06BF2F
:102E300009044FF0100C4FF0000C0B0E04BF0902F8
:102E40000CF1080C0B0F04BF09010CF1040C8B0FE3
:102E500004BF89000CF1020CCB0F04BF49000CF138
:102E6000010CCCF12003A0EB0C0022FA03F302FAD0
:102E70000CF241EA030100F10100704720F07F4CA1
:102E800080EA030023F07F47ACEB070303F57C5394
:102E900000F0004003F1FF032DE980494FEA154B94
:102EA00009B44FEA144325EA0B4E24EA03480FF213
:102EB000042606EB132749083E785FEA320203FB3B
:102EC0000667C7F5000707FB06F64FEA54374FEAD7
:102ED000D64606F1020607FB066CCCF1005C4FEA11
:102EE0001C472CEA074C07FB06F40CFB06F504EB29
:102EF00015464FEA961634BF00204FF000404FEAC7
:102F0000D13706FB07FC4FEA1C4C0CFB0BF7D21B1E
:102F100003FB0CF761EB07010CFB0EF7B0EB07406E
:102F200072EB17420CFB08F734BFA2EB0742B2EB7F
:102F3000074261EB17414FEA0C444FEA910706FB49
:102F400007FC4FEA1C4C0CFB0BF7B0EBC74072EBD5
:102F5000573203FB0CF734BFA2EBC742B2EBC742B8
:102F600061EB57310CFB0EF7B0EBC70072EB5772F9
:102F70000CFB08F734BFA2EBC702B2EBC70261EB50
:102F80005771039F4FEA816141EA921104EBCC042F
:102F90004FEAD1374FEA826206FB07FC42EA901201
:102FA0004FEA80604FEA1C4C0CFB0BF7D21B03FB73
:102FB0000CF761EB07010CFB0EF7B0EB074072EB6F
:102FC00017420CFB08F734BFA2EB0742B2EB0742F3
:102FD00061EB17414FEA8C554FEA910704EB9C24B3
:102FE00006FB07FC4FEA1C4C0CFB0BF7B0EBC74091
:102FF00072EB573203FB0CF734BFA2EBC742B2EBC4
:10300000C74261EB57310CFB0EF7B0EBC70072EB18
:1030100057720CFB08F734BFA2EBC702B2EBC70232
:1030200061EB577115EB4C254FEA816141EA921132
:103030004FEA82624FEAD13742EA901206FB07FC60
:1030400044F100044FEA80604FEA1C4C0CFB0BF784
:10305000D21B03FB0CF761EB07010CFB0EF7B0EB87
:10306000074072EB17420CFB08F734BFA2EB074294
:10307000B2EB074261EB174115EB1C154FEA8131AA
:1030800041EA92414FEA823242EA90424FEA80306E
:103090004FEA0C7644F1000448EA03434EEA0B4839
:1030A0004FF0000EB2EB080C71EB030724BF624631
:1030B00039464EEB0E0E4FF0000B001852414941BD
:1030C0004BEB0B0BB2EB080C71EB03077BF1000B26
:1030D00024BF624639464EEB0E0E4FF0000B00182F
:1030E000524149414BEB0B0BB2EB080C71EB030760
:1030F0007BF1000B24BF624639464EEB0E0E51EABF
:10310000020718BF46F0010616EB0E7655F10002D5
:1031100054F1000103D5BDE88901BDE80088BDE890
:103120008901BDE80048B619524141EB0101A3F104
:103130000103704780807F7E7D7C7B7A797877760B
:1031400076757473727171706F6E6E6D6C6C6B6A84
:103150006A69686867666665646463636261616022
:10316000605F5F5E5E5D5D5C5C5B5B5A5A5959589F
:103170005857575656555555545453535252525109
:10318000515050504F4F4F4E4E4D4D4D4C4C4C4B5F
:103190004B4B4A4A4A4949494848484747474746A6
:1031A00046464545454444444443434343424242E2
:1031B00042414141002B26D4770021D01CB54FEA73
:1031C000370703B44FF010004FF010014FF000002C
:1031D0000FBCBDE810400BF1010BBBF1010F08BFA4
:1031E0005FEA170722BF12F1010211F101014FF04E
:1031F000004143F1000300F0004043EA0000704743
:10320000F9D35708DAE746EA064613F1400F4FEACA
:1032100016461FDD13F1200FDFBF16430A460021BB
:1032200020335B42C8D0C3F1200746EA064602FAC3
:1032300007F74FEA164646EA0706C3F1200722FAC7
:1032400003F201FA07F721FA03F14FF0000342EA13
:103250000702B1E746EA020646EA06464FEA164684
:1032600046EA0106BCBF46EA0646360C4FF00003AC
:103270004FF000024FF000019EE72DE9C048934651
:1032800030B491E8380007C831EA400C48BF34EA4E
:10329000430C03D5FFF7F2FDFFF78CFFF0BCBDE850
:1032A00000882DE9C048934630B491E8380007C83B
:1032B00010F0804F08BF13F0804F03D100F005F8E5
:1032C000FFF778FFF0BCBDE8008820F07F4780EA78
:1032D000030023F07F4C07EB0C03A3F57C5300F0B5
:1032E0000040A3F1FE0392F0000F00F0B38095F0D0
:1032F000000F00F077802DE901494FEA11404FEAB5
:10330000144621EA004800FB06FC24EA064708FBB5
:1033100006F607FB08F800FB07F718EB06484CEB2E
:10332000164C4FEA124B18EB07484FEA15464CEB88
:10333000174022EA0B4E0BFB06FC25EA06470EFB64
:1033400006F607FB0EFE0BFB07F71EEB064E4CEBDB
:10335000164C4FF000061EEB074E4CEB174B18EBCC
:103360000B0840F1000018EB0E0B58EB000840F181
:1033700000008F1A4FF000013CBFC943661B14BF09
:10338000B5EB040C00213CBFC943F61B4FEA1744C0
:103390004EEA8E0E27EA04454FEA1C4704FB0762FB
:1033A0002CEA074C05FB07F70CFB05F604FB0CFCAD
:1033B00016EB074642EB174216EB0C4642EB1C425B
:1033C0001BEB060658EB0202414146EA9E0601D578
:1033D000BDE80189B619524141EB0101A3F1010396
:1033E000BDE801894FEA14454FEA114724EA054632
:1033F00021EA074C05FB07F406FB07F70CFB06F177
:1034000005FB0CFC11EB074144EB17444FEA124754
:1034100011EB0C4144EB1C4422EA074C05FB07F27C
:1034200006FB07F70CFB06F605FB0CFC16EB074644
:1034300042EB174216EB0C4642EB1C456A1854F15E
:10344000000148BF7047B619524141EB0101A3F199
:103450000103704795F0000F37D04FEA11424FEA51
:10346000144721EA024624EA074C02FB07F106FB57
:1034700007F70CFB06F402FB0CFC14EB074441EBD2
:1034800017414FEA154714EB0C4441EB1C4125EA68
:10349000074C02FB07F506FB07F70CFB06F602FBE1
:1034A0000CFC16EB074645EB174516EB0C4645EBB7
:1034B0001C42121951F1000148BF7047B619524120
:1034C00041EB0101A3F1010370474FEA14454FEAB4
:1034D000114724EA054621EA074C05FB07F106FBE4
:1034E00007F70CFB06F24FF0000605FB0CFC12EB95
:1034F000074241EB174112EB0C4251EB1C4148BF14
:103500007047921841EB0101A3F101037047490094
:1035100050EAC12018BF04204A0D18BF40F0010036
:1035200040F2FF72B2EB515F08BF40F00200012889
:1035300008BF05207047000010B500290AD00878A0
:10354000002807D005487844FFF7E6FB002801D0A3
:10355000002010BD0248784410BD00009206000013
:103560008A06000021F00042A2F16052B2F5801FED
:1035700001F0004328BFD2F17F6C0BD95FEA001C39
:1035800043EAC20242EB507018BF704728BF20F0D8
:1035900001007047B2F5801FBCBF184670474FEA64
:1035A000410C1CF5001F02D2084600F083BA70B52A
:1035B00000F079F900000089FFF7F6BF4FF00040F6
:1035C000A0F58000704700002DE9C04130B4DFF85D
:1035D000A0C23CEA111418BF3CEA131400F0EC80BE
:1035E00081EA03051CEA111444EAD57418BF1CEAE9
:1035F000131500F0C780A4EB05044FF0004545EA21
:10360000C12145EAC32341EA505143EA525304F130
:103610007F74994204F500344FEAC0204FEAC22279
:1036200008BF904200F09C804FEA13650FF24016ED
:10363000765D4FEA134506FB05F7C7F1807706FB79
:1036400007F74FEAD737A7FB03687642C8F58038FB
:10365000A7FB06CE38BFA8F1010807FB08E64FF02C
:10366000000EA6FB028CE6FB03CEDCF1000CCEF1D3
:10367000004E38BFAEF1010EA6FB0C584FF000070C
:103680004FF00005E6FB0E87A1FB08C6A0FB07CEA6
:1036900016EB0E0645F10005E1FB076515F1E04E5E
:1036A0007EBFA4F580345FEA46066D4116F18007BF
:1036B00045F100054FEA17274FEA066647EA056716
:1036C000A6F1DE46B6F1805F4FEA15251FD93846D0
:1036D00024F0010C05EBC471BCF1FE6F01EB0C1181
:1036E00002D8F0BCBDE8008124425CBF01F5801E19
:1036F0009EEAC47F02D4F0BCBDE80081244238D4E5
:10370000F0BCA1F1C041BDE8004100F01AB94FEA98
:10371000D22242EA43524FEAD323A7FB02864FEA62
:10372000D02040EA415007FB03661EEA0E0F4FEA25
:10373000D12105FB026658BFA6EB0056B6EB00563A
:103740004FEA520E4EEAC37E18EB0E0E56EB530EA6
:10375000BDD518EB02085E417F1C55F10005B6E7A8
:103760004FF480154FF000074FF000064FF00008AF
:10377000ADE7F0BC4FF0000001F1C04101F00041A5
:10378000BDE8008111EA0C1F0CEA131500D00CE013
:1037900013EA0C1F00F025804FF00000F0BC81EA16
:1037A000030101F00041BDE80081F0BCBDE800412B
:1037B00081EA030100F0C5B8F0BCBDE8004170B576
:1037C00000F071F8097EFC3E00F007B881EA0301C1
:1037D0004FF0000001F00041704781EA030100F062
:1037E000B0B8F0BCBDE800414FF00000214970477F
:1037F000FFFDFBF9F7F5F4F2F0EEEDEBE9E8E6E4B6
:10380000E3E1E0DEDDDBDAD8D7D5D4D3D1D0CFCD3C
:10381000CCCBCAC8C7C6C5C4C2C1C0BFBEBDBCBB75
:10382000BAB9B8B7B6B5B4B3B2B1B0AFAEADACAB70
:10383000AAA9A8A8A7A6A5A4A3A3A2A1A09F9F9E4A
:103840009D9C9C9B9A9999989797969595949393FC
:10385000929191908F8F8E8E8D8C8C8B8B8A898993
:103860008888878786858584848383828281818016
:103870000000FF070000F87F10F0004248BF404200
:10388000B0FA80F310FA03F10AD0C3F11D0303F577
:1038900080634FEA415002EB035202EBD1217047A3
:1038A0004FF0000070470EF1020E2EF0030E5EF88E
:1038B000046B364205D4012A43EB030515F5001FBE
:1038C00012D8012841EB010C1CF5001F0CD80ED1B9
:1038D0004FEAD17C15F5001F0CEB4C0C0CF1020CDF
:1038E00008BF4CEBD37C04E04FF0080C01E04FEA3A
:1038F000D37C0CEB4C0526FA05F606F00706B6F16C
:10390000040C06D20EEB860CBDE870404CF0010CA6
:103910006047DFE80CF0090B02024FF000414FF066
:103920000000A1F5002170BD19461046012851EB99
:10393000010418BFD4F5001484BF002001F0004139
:1039400070BD0808A0F500114FEA31017047000072
:1039500043004FEAD30C4FEA3C0C43401FBF4007E3
:103960000CF1605113F0FE4F70471CF0006F03D153
:1039700000200CF0004170470CF0004343EA507007
:1039800010B540EACC0000F04FF800BF00000092F4
:103990004FEA0001FFF7D5BF4FF000414FF00000A4
:1039A000A1F500217047401058BFC0F140404910B8
:1039B00058BFC1F140418142EFF3008070470000E1
:1039C00050EA010C00F113801CF5000F58BFBCF544
:1039D000000F01D48842704707D710F5000F58BF79
:1039E00011F5000F15D488427047894270471CF5C5
:1039F000000F04D5BCF5000FF7D5814270474FF09A
:103A0000807C1CEB400F38BF1CEB410F01D2814280
:103A1000704710B500F008F8922449004FF00050AC
:103A20004FF08051FFF7BFBF0EF1020E2EF0030ED4
:103A30005EF8044B244204D44FEA4102B2F17F4FB6
:103A400011D84FEA4003B3F17F4F0CD80ED14FEAA3
:103A5000D07CB2F17F4F0CEB4C0C0CF1020C08BF88
:103A60004CEBD17C04E04FF0080C01E04FEAD17C34
:103A70000CEB4C0324FA03F404F00704B4F1040C37
:103A800006D20EEB840CBDE810404CF0010C6047F0
:103A9000DFE80CF0070802024FF00040A0F58000BC
:103AA00010BD0846420018BFD2F1807288BF00F0F6
:103AB000004010BDFF2141EAD050C005704751EAD7
:103AC000000C00F113801CF5000F58BFBCF5000F6F
:103AD00001D48142704707D711F5000F58BF10F588
:103AE000000F15D481427047894270471CF5000FC2
:103AF00004D5BCF5000FF7D5884270474FF0807CA5
:103B00001CEB410F38BF1CEB400F01D288427047BD
:103B100080EA010081EA000180EA0100FFF779BF35
:103B2000FEF766BE02400000000000A0000000009A
:103B300005400000000000C8000000000C4000002C
:103B40000000409C00000000194000000020BCBEA6
:103B50000000000034400000BFC91B8E00000004BC
:103B6000B5400000504BCFD06607E2CF0100000007
:103B70006C4100003E8251AADFEEA7340100000034
:103B8000D9420000DCB5A0E23A301F97FFFFFFFFEB
:103B9000B4450000FD25A0C8E9A3C14FFFFFFFFF0A
:103BA000FF3F00000000008000000000FF3F000019
:103BB0000000008000000000F43B0008000000202E
:103BC0003C00000028010008303C00083C000020B8
:103BD000A4060000440100081C000000430000008F
:103BE000F8FFFFFF0C0000000E0000000F000000B7
:103BF0002E00000000A24A040000000000000000A7
:103C0000010203040607080901000000000000008B
:103C100000000000000000000000000000000000A4
:103C2000010203040102030406070809020406084E
:04000005080000ED02
:00000001FF
